:1000000019C033C032C031C030C02FC02EC02DC087
:100010002CC02BC02AC029C028C027C026C025C09C
:1000200024C023C022C021C020C01FC01EC01DC0CC
:100030001CC01BC011241FBECFEFD4E0DEBFCDBF5C
:1000400012E0A0E0B1E0E6EFF4E102C005900D920D
:10005000A834B107D9F722E0A8E4B2E001C01D92AC
:10006000AF34B207E1F757D544CACACF982F92955B
:100070009F708F702AE0929F800D112408956AE08E
:1000800015D6292F30E1839FC0011124822B0895BA
:10009000CF92DF92FF920F931F93CF93DF93CDB751
:1000A000DEB760970FB6F894DEBF0FBECDBF6C0110
:1000B00080914C021F928F93809149021F928F93DF
:1000C00080914A021F928F9380914B021F928F93CF
:1000D0008CE191E09F938F931F9280E1F82EFF9225
:1000E0008E010F5F1F4F1F930F931DD72ED4C80192
:1000F00082D4C6016AE070E0E5D59F938F937F9329
:100100006F93809148021F928F9380914D021F92AE
:100110008F9383E391E09F938F931F92FF921F939E
:100120000F9301D762E080E053D4C80164D40FB6C6
:10013000F894DEBF0FBECDBF60960FB6F894DEBF59
:100140000FBECDBFDF91CF911F910F91FF90DF9038
:10015000CF900895CF93DF93D82FC62F80EDAAD4E8
:10016000811107C08D2FA8D48C2FA6D4DF91CF91F9
:10017000CAC4DF91CF910895CF93C82F80ED9AD450
:10018000811109C08C2F98D480EDA7D4B2D4C82F88
:10019000BAD48C2F01C080E0CF910895CF93C82F9F
:1001A00080E0EADF682FCC2311F06F7701C0606830
:1001B00080E0CF91CFCFCF93DF9380E0DDDFD82FEA
:1001C00088E08093490210924A0280934B0281E0BA
:1001D00080934D0284E08093480285E180934C0235
:1001E00087E080934E0280ED65D4C82F811125C031
:1001F00080E062D480914902D7FF03C040DF80686D
:1002000002C03DDF8F7758D480914A0238DF54D442
:1002100080914B0234DF50D480914E024DD48091B6
:100220004D022DDF49D48091480229DF45D48091C9
:100230004C0225DF41D467D401C0C1E08C2FDF918F
:10024000CF910895CF9380ED35D4C82F811122C06E
:1002500080E032D480ED41D442D48F7707DF8093A1
:1002600049023DD403DF80934A0239D4FFDE8093F4
:100270004B0235D480934E0232D4F8DE80934D0287
:100280002ED4F4DE8093480234D4F0DE80934C0206
:100290003AD401C0C1E08C2FCF910895CF93DF9362
:1002A000CDB7DEB72C970FB6F894DEBF0FBECDBF2B
:1002B0008CE0E0E1F1E0DE01119601900D928A956B
:1002C000E1F71092490280914A028F5F8C33C8F1A6
:1002D00010924A0280914B028F5F883118F480930C
:1002E0004B0231C010924B0230914D023F5F309370
:1002F0004D0220914C02822F837029F5822F64E6F3
:10030000D5D4992301F18DE18A8380914802E1E0FF
:10031000F0E0EC0FFD1FE80FF11D9081931730F412
:1003200091E090934D028F5F809348028091480244
:100330008C3048F081E0809348022F5F20934C027C
:1003400002C080934A022C960FB6F894DEBF0FBE0F
:10035000CDBFDF91CF910895CF93C82F80EAAAD364
:100360008C2FAAD381EAB9D3C4D3C82FCCD38C2F76
:10037000CF910895CF93DF93C82F80EA9BD38C2F22
:100380009BD381EAAAD3ABD3D82FB3D3C82FBBD387
:100390008C2F90E0982F88278D0F911DDF91CF91A2
:1003A0000895CF93DF93C82FD62F80EA83D38D2F64
:1003B00083D38C2F81D3A7D38FE19EE40197F1F7EC
:1003C00000C00000DF91CF9108951F93CF93DF937A
:1003D000D82FC92F162F80EA6DD3812F6DD38D2F83
:1003E0006BD38C2F69D38FD38FE19EE40197F1F704
:1003F00000C00000DF91CF911F91089580E090E050
:10040000DC0120E030917A00306C30937A0030913A
:100410007A0036FDFCCF4091780050917900840F2E
:10042000951FA11DB11D2F5F203861F725E0B695FE
:10043000A795979587952A95D1F7BC01CD016C5466
:100440007540810991097ED42EE53AEB49E85EE3D7
:10045000DFD44CD4CB0108956F927F928F929F92FC
:10046000AF92BF92CF92DF92EF92FF920F931F93C2
:10047000CF93DF93CDB7DEB761970FB6F894DEBFA9
:100480000FBECDBF80914902882369F02FEF80E72E
:1004900092E0215080409040E1F700C00000D2DEA1
:1004A000ADDFF6DDEFCF61E080914C027ADF62E0F4
:1004B0008091480276DF63E080914D0272DF64E054
:1004C00080914B026EDF65E080914A026ADF16E0A0
:1004D0004AE0E42EF12C50E5C52E51E0D52E01E185
:1004E000CE0101965C019FEF20E782E09150204011
:1004F0008040E1F700C00000A5DE80DFC9DD80910B
:100500004902811148C0212F30E0C901069797FDAB
:1005100001969595879560E08F5F43DF6FDF612FD0
:1005200054DF32E0732E710E10D261E080E050D2C1
:1005300086E491E060D280E00FDF682E812F1ADF21
:100540004C01812F17DF9C011F926F92C401B701EC
:10055000B9D39F938F93C901B701B4D37F936F939E
:10056000DF92CF921F920F93BF92AF92DCD462E0E2
:1005700080E02ED2C5013FD29FEF2EE984E2915058
:1005800020408040E1F700C000000FB6F894DEBFC5
:100590000FBECDBF172D1999A6CF1899A4CFD5D1CD
:1005A00061E080E015D28EE591E025D29FEF2EE943
:1005B00084E2915020408040E1F700C00000619645
:1005C0000FB6F894DEBF0FBECDBFDF91CF911F9164
:1005D0000F91FF90EF90DF90CF90BF90AF909F90E2
:1005E0008F907F906F9008952F923F924F925F92DD
:1005F0006F927F928F929F92AF92BF92CF92DF9233
:10060000EF92FF920F931F93CF93DF93CDB7DEB797
:1006100061970FB6F894DEBF0FBECDBF81E09CDEC0
:1006200080934C0282E098DE8093480283E094DE5F
:1006300080934D0284E090DE80934B0285E08CDE57
:1006400080934A0226E0522EFF24F39433243394FD
:100650003EE7632E31E0732E41E1442E8E010F5FA1
:100660001F4F5DE8C52E51E0D52E6AE0A62EB12CB5
:100670007CE9872E71E0972E80E06EDE811115C037
:1006800064D161E080E0A4D18AE691E0B4D162E077
:1006900080E09ED188E791E0AED12FEF8EE994E221
:1006A000215080409040E1F7FEC04FD180E054DE01
:1006B0001F928F937F926F921F924F921F930F936F
:1006C00032D462E080E084D1C80195D12FEF8EE969
:1006D00094E2215080409040E1F700C000000FB646
:1006E000F894DEBF0FBECDBF22242394FF2009F46F
:1006F000E2C0852D3FDE29D161E080E069D18091A3
:100700004A021F928F9380914B021F928F93809188
:100710004C021F928F93809148021F928F93809179
:100720004D021F928F93DF92CF921F924F921F9391
:100730000F93F9D3C8015FD162E080E049D1852DE4
:1007400019DE7C01852D16DE9C01C701B501BAD2E8
:100750009F938F93C901B501B5D27F936F931F9279
:100760003F929F928F921F924F921F930F93DBD3D2
:10077000C80141D19FE728E381E0915020408040AB
:10078000E1F700C000000FB6F894DEBF0FBECDBF8A
:1007900018990DC09FE728E381E0915020408040E8
:1007A000E1F700C00000339479DD53945394189915
:1007B0007DC09FE72AE186E0915020408040E1F72C
:1007C00000C000001899F3CF1999F1CFBED089EA83
:1007D00091E011D19FEF2EE984E2915020408040BA
:1007E000E1F700C00000E12CF12C6E2D80E0D9DD96
:1007F0009FEFE91AF90AE11421E0F206B1F7A5D05A
:1008000061E080E0E5D086EB91E0F5D062E080E049
:10081000DFD08EEB91E0EFD08FEF9EE924E28150A4
:1008200090402040E1F700C00000212CF12C80E036
:1008300093DD452D50E09A012650310937FF02C063
:100840002F5F3F4F3595279590E0281739070CF417
:100850004DCF222009F44ACF78D088EC91E0CBD05C
:1008600062E080E0B5D089ED91E0C5D08FEF99E6E8
:1008700028E1815090402040E1F700C0000065D0A1
:1008800061E080E0A5D086EB91E0B5D062E080E049
:100890009FD08EEB91E0AFD08FEF9EE924E28150A4
:1008A00090402040E1F700C0000007C0199B81CFB5
:1008B000FF24F394BCCF2110DFCE61960FB6F894DD
:1008C000DEBF0FBECDBFDF91CF911F910F91FF9083
:1008D000EF90DF90CF90BF90AF909F908F907F90E0
:1008E0006F905F904F903F902F900895209821989F
:1008F000289A299A08955B9A85E38A95F1F7000072
:100900005B9808959BB19F709BB99BB1807F982B9A
:100910009BB9F1CFCF93C82F5A9AF4DF8C2F8295D1
:10092000807FF0DF8AE78A95F1F700C0CF910895C4
:10093000CF93C82F5A98E6DF8C2F8295807FE2DF15
:1009400080E78A95F1F7CF91089581E0F1DF8FE993
:100950009FE00197F1F700C0000008958AB18C6F05
:100960008AB98BB183708BB98FE295E70197F1F764
:1009700000C0000080E3C6DF8FE097E20197F1F747
:1009800000C00000B8DF8FEC97E00197F1F700C0DE
:100990000000B1DF8FEC97E00197F1F700C0000095
:1009A00080E2B0DF8FE097E20197F1F700C000002E
:1009B00088E2BEDF8CE0BCDF86E0BADFC6CF82E033
:1009C000B7DF8FE99FE00197F1F700C000000895BD
:1009D000623059F018F4613031F00895633039F025
:1009E000643039F00895805805C0805403C08057A2
:1009F00001C080539DCFCF93DF93EC018991882371
:100A000011F088DFFBCFDF91CF9108950F931F93F3
:100A1000CF93DF938B0128E0829FC0011124806473
:100A200087DFE801085F1F4F899174DFC017D10786
:100A3000D9F7DF91CF911F910F91089594EA909388
:100A4000BC009091BC0097FFFCCF9091B900987FBB
:100A5000983029F09091B900987F9031A9F4809353
:100A6000BB0084E88093BC008091BC0087FFFCCF72
:100A70008091B900887F883149F08091B900887FE2
:100A8000803421F082E0089581E0089580E00895A7
:100A90006B3008F46BE03D983C98882319F0459A38
:100AA000449A02C0459844986093B80081E08093CE
:100AB000B90008958E7FC2CF8093BB0084E88093F5
:100AC000BC008091BC0087FFFCCF9091B900987F5B
:100AD00081E0983209F480E008958160AFCF84EC22
:100AE0008093BC008091BC0087FFFCCF8091BB004D
:100AF000089584E88093BC008091BC0087FFFCCF00
:100B00008091BB00089584E98093BC008091BC0073
:100B100084FDFCCF0895CF93DF93CDB7DEB7619707
:100B20000FB6F894DEBF0FBECDBFE0DE17DF6AE080
:100B300081E0AEDF10927C0086E080937A008091A5
:100B40007C00886C80937C0036DB8CEFE82E81E0A3
:100B5000F82E91E1B92ECE0101966C019FEF20E7AE
:100B600082E0915020408040E1F700C0000046DC68
:100B70008C0168DBC8018CDA189917C09FEF20E759
:100B800082E0915020408040E1F700C00000DDDEAF
:100B90008EEB91E030DF9FEF2EE984E29150204010
:100BA0008040E1F700C000001FDD1999D7CF9FEF0B
:100BB00020E782E0915020408040E1F700C0000033
:100BC00080E0CADB81110FC0C0DE82EE91E013DF4E
:100BD0009FEF2EE984E2915020408040E1F700C071
:100BE00000003ADCBBCFB1DE61E080E0F1DE8EEEEA
:100BF00091E001DF62E080E0EBDE80E0ADDB1F92A0
:100C00008F93FF92EF921F92BF92DF92CF928BD180
:100C1000C601F1DE9FEF2EE984E291502040804032
:100C2000E1F700C000009FEF2EE984E291502040E0
:100C30008040E1F700C000000FB6F894DEBF0FBEA1
:100C4000CDBF83DE61E080E0C3DE8AE092E0D3DEE8
:100C500062E080E0BDDE89E192E0CDDE9FE728E33F
:100C600081E0915020408040E1F700C000001899D9
:100C700019C06BDE89EA91E0BEDE9FEF2EE984E2C7
:100C8000915020408040E1F700C0000000E010E0FB
:100C9000602F80E086DB0F5F1F4F011591E0190781
:100CA000B9F75CCF1999CDCF9FDC58CF991B79E06C
:100CB00004C0991F961708F0961B881F7A95C9F7EC
:100CC00080950895AA1BBB1B51E107C0AA1FBB1F3B
:100CD000A617B70710F0A61BB70B881F991F5A95C8
:100CE000A9F780959095BC01CD01089570D088F04A
:100CF0009F5790F0B92F9927B751A0F0D1F0660F08
:100D0000771F881F991F1AF0BA95C9F712C0B13022
:100D100081F077D0B1E0089574C0672F782F8827CD
:100D2000B85F39F0B93FCCF3869577956795B39561
:100D3000D9F73EF490958095709561957F4F8F4FD0
:100D40009F4F0895E89409C097FB3EF490958095D5
:100D5000709561957F4F8F4F9F4F9923A9F0F92F81
:100D600096E9BB279395F695879577956795B795FF
:100D7000F111F8CFFAF4BB0F11F460FF1BC06F5FE5
:100D80007F4F8F4F9F4F16C0882311F096E911C0F7
:100D9000772321F09EE8872F762F05C0662371F018
:100DA00096E8862F70E060E02AF09A95660F771F2C
:100DB000881FDAF7880F9695879597F9089557FD5C
:100DC0009058440F551F59F05F3F71F04795880FB9
:100DD00097FB991F61F09F3F79F087950895121650
:100DE00013061406551FF2CF4695F1DF08C01616FC
:100DF00017061806991FF1CF8695710561050894AD
:100E00000895E894BB2766277727CB0197F90895C3
:100E10000BD078C069D028F06ED018F0952309F077
:100E20005AC05FC01124EECFCADFA0F3959FD1F363
:100E3000950F50E0551F629FF001729FBB27F00D88
:100E4000B11D639FAA27F00DB11DAA1F649F6627DD
:100E5000B00DA11D661F829F2227B00DA11D621F2C
:100E6000739FB00DA11D621F839FA00D611D221FE6
:100E7000749F3327A00D611D231F849F600D211DCA
:100E8000822F762F6A2F11249F5750408AF0E1F06D
:100E900088234AF0EE0FFF1FBB1F661F771F881FB6
:100EA00091505040A9F79E3F510570F014C0AACF51
:100EB0005F3FECF3983EDCF3869577956795B795A1
:100EC000F795E7959F5FC1F7FE2B880F911D9695CB
:100ED000879597F9089597F99F6780E870E060E03B
:100EE00008959FEF80EC089500240A9416161706C3
:100EF00018060906089500240A941216130614060B
:100F000005060895092E0394000C11F4882352F06D
:100F1000BB0F40F4BF2B11F460FF04C06F5F7F4F25
:100F20008F4F9F4F0895AEE0B0E0E8E9F7E0B8C218
:100F30000D891E898F89988D26E02C831A83098359
:100F400097FF02C080E090E801979E838D83AE01F9
:100F5000455E5F4F698D7A8DCE01019611D04D812E
:100F60005E8157FD0AC02F813885421753070CF464
:100F70009A01F801E20FF31F10822E96E4E0ACC252
:100F8000ABE0B0E0E5ECF7E07DC26C017B018A01EB
:100F9000FC0117821682838181FFBFC1CE010196B9
:100FA0003C01F6019381F70193FD859193FF8191B7
:100FB0007F01882309F4ADC1853239F493FD859111
:100FC00093FF81917F01853221F4B60190E0C0D179
:100FD000E8CF912C212C312CFFE1F315D8F08B3286
:100FE00079F038F4803279F08332A1F4232D206136
:100FF0001DC08D3261F0803369F4232D216016C04D
:10100000832D8260382EE32DE4603E2E2AC0F32D1E
:10101000F8601DC037FC2DC020ED280F2A3040F0AD
:101020008E32B9F436FC75C1232D2064322E19C0DE
:1010300036FE06C08AE0989E200D1124922E11C023
:10104000EAE02E9E200D1124222EF32DF0623F2E79
:1010500008C08C3621F4832D8068382E02C0883673
:1010600041F4F70193FD859193FF81917F018111F7
:10107000B3CF982F9F7D9554933028F40C5F1F4F6A
:101080009FE399830DC0833631F0833771F0833548
:1010900009F055C020C0F801808189830E5F1F4F81
:1010A00088248394912C530112C02801F2E04F0E42
:1010B000511CF801A080B18036FE03C0692D70E09C
:1010C00002C06FEF7FEFC50138D14C018201F32DD3
:1010D000FF773F2E15C0280122E0420E511CF80177
:1010E000A080B18036FE03C0692D70E002C06FEFB2
:1010F0007FEFC50117D14C01F32DF0683F2E82011F
:1011000033FC19C0822D90E088169906A0F4B60130
:1011100080E290E01DD12A94F5CFF50137FC85914E
:1011200037FE81915F01B60190E012D121102A941F
:1011300021E0821A91088114910479F7E1C0843684
:1011400011F0893639F5F80137FE07C060817181E9
:10115000828193810C5F1F4F08C060817181072ECF
:10116000000C880B990B0E5F1F4FF32DFF763F2E5F
:1011700097FF09C090958095709561957F4F8F4F2F
:101180009F4FF0683F2E2AE030E0A3011DD1882E4A
:10119000861844C0853731F4232D2F7EB22E2AE0E5
:1011A00030E025C0932D997FB92E8F36C1F018F409
:1011B000883579F0AEC0803719F0883721F0A9C0A2
:1011C000E92FE061BE2EB4FE0DC0FB2DF460BF2EF2
:1011D00009C034FE0AC0292F2660B22E06C028E0BE
:1011E00030E005C020E130E002C020E132E0F8014B
:1011F000B7FE07C060817181828193810C5F1F4FB0
:1012000006C06081718180E090E00E5F1F4FA301F6
:10121000DBD0882E8618FB2DFF773F2E36FE0DC0C3
:10122000232D2E7FA22E891458F434FE0BC032FCDD
:1012300009C0832D8E7EA82E05C0B82CA32C03C018
:10124000B82C01C0B92CA4FE0FC0FE01E80DF11DA1
:101250008081803321F49A2D997EA92E09C0A2FEA7
:1012600006C0B394B39404C08A2D867809F0B39471
:10127000A3FC10C0A0FE06C0B21480F4280C922C6F
:101280009B180DC0B21458F4B60180E290E060D013
:10129000B394F8CFB21418F42B1802C0982C212C58
:1012A000A4FE0FC0B60180E390E052D0A2FE16C0AB
:1012B000A1FC03C088E790E002C088E590E0B60199
:1012C0000CC08A2D867851F0A1FE02C08BE201C0CD
:1012D00080E2A7FC8DE2B60190E03AD0891430F4A8
:1012E000B60180E390E034D09A94F8CF8A94F30169
:1012F000E80DF11D8081B60190E02AD08110F6CF73
:10130000222009F44ECEB60180E290E021D02A944A
:10131000F7CFF6018681978102C08FEF9FEF2B9662
:10132000E2E1CCC0FC010590615070400110D8F79B
:10133000809590958E0F9F1F0895FC01615070401D
:1013400001900110D8F7809590958E0F9F1F0895FA
:101350000F931F93CF93DF93FB01238121FD03C0E4
:101360008FEF9FEF2CC022FF16C04681578124814A
:1013700035814217530744F4A081B1819D012F5F4D
:101380003F4F318320838C93268137812F5F3F4FDE
:101390003783268314C08B01EC01FB010084F185A7
:1013A000E02D0995892BE1F6D80116968D919C9137
:1013B0001797019617969C938E931697CE01DF91FF
:1013C000CF911F910F910895FA01AA27283051F16A
:1013D000203181F1E8946F936E7F6E5F7F4F8F4F66
:1013E0009F4FAF4FB1E03ED0B4E03CD0670F781FC5
:1013F000891F9A1FA11D680F791F8A1F911DA11DAA
:101400006A0F711D811D911DA11D20D009F46894E2
:101410003F912AE0269F11243019305D3193DEF68A
:10142000CF010895462F4770405D4193B3E00FD040
:10143000C9F7F6CF462F4F70405D4A3318F0495D2B
:1014400031FD4052419302D0A9F7EACFB4E0A6950E
:101450009795879577956795BA95C9F70097610530
:10146000710508959B01AC010A2E06945795479586
:1014700037952795BA95C9F7620F731F841F951F7B
:10148000A01D08952F923F924F925F926F927F928C
:101490008F929F92AF92BF92CF92DF92EF92FF9284
:1014A0000F931F93CF93DF93CDB7DEB7CA1BDB0B30
:1014B0000FB6F894DEBF0FBECDBF09942A883988D5
:1014C00048885F846E847D848C849B84AA84B984DC
:1014D000C884DF80EE80FD800C811B81AA81B981E8
:1014E000CE0FD11D0FB6F894DEBF0FBECDBFED01FC
:0614F0000895F894FFCFFF
:1014F60028022C023002340238023C024002440226
:101506001F1C1F1E1F1E1F1F1E1F1E1F253032647D
:101516003A253032643A2530326420203230253084
:10152600326400253032642E253032642020256452
:101536002E25642043005265636F7264696E6700EE
:10154600543A2025642E256420563A2564004578B1
:101556006974696E67206C6F6700546865206D65F5
:101566006D6F727920697300656D707479005661CC
:101576006C7565206E756D3A202532640025642EE3
:1015860025642E25642025643A256400543A256492
:101596002025642E25642043004D656D6F727920E9
:1015A60072657365740045786974696E6700526583
:1015B6006164206D6F6465004E756D626572206FA3
:1015C600662076616C75657300657863656564652C
:1015D60064004C6F67206D6F6465206F6E00416C10
:1015E60072656164792073617665640076616C75F5
:1015F60065732069733A202564005265736574200B
:101606006F7220526561643F0057697468204231E9
:1016160020616E64204232004D6F6E005475650085
:10162600576564005468750046726900536174001A
:0816360053756E00457272004D
:00000001FF
